:100000000C942A000C9434000C9434000C943400AA
:100010000C9434000C9434000C9434000C94340090
:100020000C9434000C9434000C9434000C94340080
:100030000C9434000C9434000C9434000C94340070
:100040000C9434000C9434000C9434000C94340060
:100050000C94340011241FBECFE5D8E0DEBFCDBF25
:100060000E9436000C944F000C9400008FE087BB78
:1000700061E048EC50E068BB20E030E00DC0FA01E0
:100080003197F1F70197D9F788B3880F88BB2F5FB5
:100090003F4F2430310579F380E197E2F0CFF894B7
:0200A000FFCF90
:00000001FF
